:0200000400807A
:10000000370180001301010BE7000100130000001D
:1000100000000000000000000000000000000000E0
:10002000232E11FE232C51FE232A61FE232871FE6C
:100030002326A1FE2324B1FE2322C1FE2320D1FECC
:10004000232EE1FC232CF1FC232A01FD232811FDA2
:100050002326C1FD2324D1FD2322E1FD2320F1FD30
:10006000130101FCEF0040738320C103832281034D
:1000700003234103832301030325C1028325810256
:1000800003264102832601020327C1018327810140
:100090000328410183280101032EC100832E810022
:1000A000032F4100832F010013010104730020304E
:1000B000971100009381019E170100001301811820
:1000C000170500001305051D970500009385851C85
:1000D0006308B50023200500130545006FF05FFF9E
:1000E0001385C1DE1301C1FF9385C1DE630EB50028
:1000F00083260500130545002320A100E7800600A4
:10010000032501006FF05FFE130141003715000069
:1001100013050588731045303725000013058580C9
:1001200073100530EF00C04B6F00000000000000AE
:0401300000000000CB
:1002400048656C6C6F20776F726C64212049206167
:100250006D2046696E6B612E000000002E000000CC
:1002600048656C6C6F20776F726C64212049206147
:100270006D2046696E6B6120616761696E2E0000BA
:100280000800000000000000010000000E01000056
:10029000130101FE232E8100130401022326A4FE74
:1002A0008327C4FE23A007008327C4FE23A40700DE
:1002B000130000000324C101130101026780000044
:1002C000130101FE232E8100130401022326A4FE44
:1002D000130000000324C101130101026780000024
:1002E000130101FE232E8100130401022326A4FE24
:1002F0008327C4FE23A207008327C4FE1307F0FF51
:1003000023A0E700130000000324C1011301010230
:1003100067800000130101FE232E810013040102F7
:100320002326A4FE8327C4FE83A7470093D7070193
:1003300093F7F70F138507000324C101130101028E
:1003400067800000130101FE232E810013040102C7
:100350002326A4FE8327C4FE83A7470093D78701E3
:10036000138507000324C101130101026780000007
:10037000130101FE232E1100232C8100130401021E
:100380002326A4FE2324B4FE130000000325C4FE8C
:10039000EFF05FF893070500E38A07FE8327C4FEAA
:1003A000032784FE23A0E700130000008320C1017F
:1003B000032481011301010267800000130101FE83
:1003C000232E8100130401022326A4FE2324B4FE5D
:1003D000832784FE03A7C7008327C4FE23A4E70066
:1003E000832784FE83A707001387F7FF832784FEF4
:1003F00083A74700939787003367F700832784FE1E
:1004000083A78700939707013367F7008327C4FE0C
:1004100023A6E700130000000324C1011301010219
:1004200067800000130101FE232E1100232C8100A0
:10043000130401022326A4FE6F0040028327C4FE9A
:1004400083C70700938507003705F100EFF05FF2DF
:100450008327C4FE938717002326F4FE8327C4FE58
:1004600083C70700E39C07FC130000008320C10141
:10047000032481011301010267800000130101FEC2
:10048000232E1100232C8100130401022326A4FE35
:100490000327C4FE9307300663D4E7028327C4FE14
:1004A0009305400613850700EF000032930705000F
:1004B00093870703938507003705F100EFF05FEBA3
:1004C0008327C4FE9305400613850700EF0000381C
:1004D000930705002326F4FE0327C4FE930790002C
:1004E00063D4E7028327C4FE9305A00013850700A9
:1004F000EF00802D9307050093870703938507007E
:100500003705F100EFF0DFE68327C4FE9305A00076
:1005100013850700EF008033930705002326F4FEC0
:100520008327C4FE93870703938507003705F100EF
:10053000EFF01FE49305A0003705F100EFF05FE353
:1005400013000000138507008320C10103248101EB
:100550001301010267800000130101FE232E110028
:10056000232C8100130401022326A4FE0325C4FECC
:10057000EFF05FEB9305A0003705F100EFF05FDFD0
:10058000130000008320C101032481011301010233
:1005900067800000130101FD23268102130401037B
:1005A000232EA4FC232604FE6F00C001B707F00031
:1005B00083A747002324F4FE8327C4FE93871700F4
:1005C0002326F4FE8327C4FE0327C4FDE3E0E7FEF1
:1005D000130000000324C10213010103678000001F
:1005E000130101FD232611022324810213040103B8
:1005F000B7078000938507283705F100EFF01FDC6F
:10060000B707800013850724EFF01FF593078001DB
:100610002320F4FE232604FE6F0040080327C4FEB7
:100620009357F74193D7C7013307F7001377F700C4
:10063000B307F740232AF4FC832744FD13972700D0
:10064000B717C000B307F7000327C4FE23A0E700D5
:10065000832704FE9387F7FF0327C4FE631CF7007C
:10066000B717C000938747041307100023A0E700C3
:100670006F000002032744FD9307F000631AF700A0
:10068000B717C000938707041307100023A0E700E3
:100690008327C4FE938717002326F4FE0327C4FE96
:1006A000832704FEE34CF7F6B707F0001307F000CA
:1006B00023A4E700B707F0001307100023A2E70008
:1006C00093078000232EF4FCB7570000938707E2BE
:1006D000232CF4FC232404FE6F00C0031307100036
:1006E000832784FE3317F700B707F00023A2E70043
:1006F000832784FD13850700EFF0DFE9B70780004B
:100700001385C725EFF01FD2832784FE9387170038
:100710002324F4FE8327C4FD9387F7FF1387070084
:10072000832784FEE3ECE7FA232204FE6F008004B3
:100730008327C4FD9387F7FF130710003317F700D3
:10074000832744FE3357F740B707F00023A2E700A2
:10075000832784FD13850700EFF0DFE3B7078000F0
:100760001385C725EFF01FCC832744FE938717001E
:100770002322F4FE8327C4FD9387F7FF1387070026
:10078000832744FEE3E6E7FAB707800013850726D0
:10079000EFF09FDC6FF01FF4130101FE232E8100A8
:1007A000130401029307A0022326F4FE8327C4FE4C
:1007B000939727002324F4FE130000000324C101B3
:1007C00013010102678000006340050663C6050649
:1007D00013860500930505001305F0FF630C060260
:1007E00093061000637AB6006358C0001316160013
:1007F00093961600E36AB6FE1305000063E6C50093
:10080000B385C5403365D50093D616001356160040
:10081000E39606FE6780000093820000EFF05FFB26
:1008200013850500678002003305A04063D80500EA
:10083000B305B0406FF0DFF9B305B040938200001C
:10084000EFF01FF93305A04067800200938200009B
:1008500063CA0500634C0500EFF09FF713850500A0
:1008600067800200B305B040E35805FE3305A040A1
:0C087000EFF01FF63305B0406780020077
:040000050080000077
:00000001FF
